:020000040000FA
:100000000C945D000C9485000C9485000C94850084
:100010000C9485000C9485000C9485000C9485004C
:100020000C9485000C9485000C9485000C9485003C
:100030000C9485000C9485000C9485000C9485002C
:100040000C945B020C9485000C9485000C94850044
:100050000C9485000C9485000C9485000C9485000C
:100060000C9485000C94850000000008000201003B
:100070000003040700000000000000000000000072
:10008000250028002B0000000000240027002A0083
:10009000040404040404040402020202020203032E
:1000A0000303030301020408102040800102040836
:1000B0001020010204081020C70411241FBECFEF36
:1000C000D8E0DEBFCDBF11E0A0E0B1E0E0EDFBE0A5
:1000D00002C005900D92A236B107D9F721E0A2E641
:1000E000B1E001C01D92A33AB207E1F710E0CDE5FF
:1000F000D0E004C02197FE010E94E005CC35D10775
:10010000C9F70E94A5020C94E6050C94000090E04B
:10011000FC01EC55FF4F249180579F4FFC018491C7
:10012000882399F090E0880F991FFC01EA57FF4F50
:10013000A591B491FC01E458FF4F859194918FB73C
:10014000F894EC91E22BEC938FBF0895CF93DF935B
:1001500040918F01242F2250330BB901A8E7B1E061
:10016000EC0130E020E0241788F4E991F0E0E85C4D
:10017000FE4F90812617370739F05A969C935A976D
:100180002F5F3F4F1196EFCF9068F7CFDF91CF9160
:1001900008954F925F926F927F92BF92CF92DF92BB
:1001A000EF92FF920F931F93CF93DF936B017C012C
:1001B000EA0180918F0124E0829FC0011124FC019B
:1001C000E05FFE4F4081518162817381415051094E
:1001D000610971094C155D056E057F05A4F0845F0A
:1001E0009E4FFC01408151816281738181E090E0EA
:1001F000A0E0B0E0841B950BA60BB70BC816D90680
:10020000EA06FB066CF480E095E220918F018217EC
:1002100008F057C0FE01E80FF11D90838F5FF5CF06
:10022000B12CF7FE0CC085E28883F094E094D09462
:10023000C094C11CD11CE11CF11CBB24B394E091FF
:100240008F01BE1630F50B2D10E0E150FF0BE01BC7
:10025000F10BEE0FFF1FEE0FFF1FE05FFE4F408020
:10026000518062807380C701B601A30192010E9490
:100270007D05FE01E00FF11F2083A22FB0E0A30156
:1002800092010E949C05C61AD70AE80AF90AB3949B
:10029000D6CF80917E01811114C044E2E82FF0E0B6
:1002A00020918F012250330BE217F30754F4EC0F27
:1002B000FD1F9081911103C040838F5FEFCF9A3073
:1002C000E0F7DF91CF911F910F91FF90EF90DF90BA
:1002D000CF90BF907F906F905F904F90089590E087
:1002E000FC01E859FF4F2491FC01EC55FF4F34917C
:1002F000FC01E057FF4FE491EE23C9F0222339F0CF
:10030000233001F1A8F4213019F1223029F1F0E075
:10031000EE0FFF1FE458FF4FA591B4918FB7F894EB
:10032000EC91611126C030953E233C938FBF089518
:100330002730A9F02830C9F0243049F78091800097
:100340008F7D03C0809180008F7780938000DFCF06
:1003500084B58F7784BDDBCF84B58F7DFBCF809153
:10036000B0008F778093B000D2CF8091B0008F7DA6
:10037000F9CF3E2BDACFCF93DF93C82FD0E0809117
:100380009001D81758F4ED2FF0E0E858FE4F609137
:100390007B0187850E946F01DF5FF1CFEC2FF0E0DA
:1003A000E858FE4F609179018781DF91CF910C94DD
:1003B0006F01CF93DF93C82FD0E080918F01D817C2
:1003C00058F4ED2FF0E0E858FE4F609179018781F5
:1003D0000E946F01DF5FF1CFEC2FF0E0E858FE4F95
:1003E00060917B018785DF91CF910C946F011F9302
:1003F000CF93DF93C82FD0E0C858DE4F60917801CB
:100400008F810E946F0110E06A9680919001181709
:10041000A8F4E12FF0E0888190E0012E02C09595CC
:1004200087950A94E2F780FF07C0E858FE4F609175
:100430007A0187850E946F011F5FE7CFDF91CF911F
:100440001F9108950F931F93CF93C82FE82FF0E0CB
:10045000E858FE4F60917A0187850E946F0101E0A4
:1004600010E002C0000F111FCA95E2F7C0E08091B2
:100470008F01C81788F4EC2FF0E0E858FE4F828D0A
:1004800090E080239123892B29F060917801878166
:100490000E946F01CF5FEBCFCF911F910F91089515
:1004A0008230910538F0880F991F880F991F0597A2
:1004B0000197F1F708951F920F920FB60F92112432
:1004C0002F933F938F939F93AF93BF93809163013B
:1004D00090916401A0916501B09166013091620133
:1004E00023E0230F2D3758F50196A11DB11D209350
:1004F00062018093630190936401A0936501B093BE
:1005000066018091670190916801A0916901B091A5
:100510006A010196A11DB11D809367019093680146
:10052000A0936901B0936A01BF91AF919F918F91A0
:100530003F912F910F900FBE0F901F90189526E8B6
:10054000230F0296A11DB11DD2CFCF93DF93CDB75C
:10055000DEB72C970FB6F894DEBF0FBECDBF7894F0
:1005600084B5826084BD84B5816084BD85B58260B8
:1005700085BD85B5816085BD80916E008160809369
:100580006E001092810080918100826080938100D2
:1005900080918100816080938100809180008160E2
:1005A000809380008091B10084608093B10080913D
:1005B000B00081608093B00080917A008460809365
:1005C0007A0080917A00826080937A0080917A002C
:1005D000816080937A0080917A00806880937A00AD
:1005E0001092C1008091040190910501A091060133
:1005F000B091070189879A87AB87BC8788E0E8E0DC
:10060000F1E0DE01119601900D928A95E1F781E00B
:1006100080937C0110927D0110927E0194E0909372
:100620008F0198E0909390018093780110927A0165
:100630001092790180937B01FE013196A7E8B1E029
:10064000CE01099621912D938E179F07D9F78985A1
:1006500080937F018A85809380018B8580938101BF
:100660008C858093820110E080918F01181790F49F
:10067000812F90E09C0128583E4F7901F901878134
:100680000E94870060917901F70187810E946F01C4
:100690001F5FEACF10E080919001181750F0909101
:1006A0008F01E2E9F1E080E09817A9F011928F5FE5
:1006B000FBCF812F90E09C0128583E4F7901F90132
:1006C00087850E94870060917B01F70187850E94E2
:1006D0006F011F5FE0CF80E00E94D90180E00E949F
:1006E000BB0188E097E090939F0180939E01109258
:1006F000A1011092A0011092A2015FE0852E57E2A5
:10070000952EA12CB12C00E010E0FF24F3948091F1
:100710007001811115C02FB7F894809163019091F9
:100720006401A0916501B09166012FBF80936C01B7
:1007300090936D01A0936E01B0936F01F0927001E0
:100740008FB7F89440916301509164016091650105
:10075000709166018FBF80916C0190916D01A091A5
:100760006E01B0916F01481B590B6A0B7B0B44362D
:1007700051056105710550F120916B01211126C0D1
:100780008C599F4FAF4FBF4F80936C0190936D0179
:10079000A0936E01B0936F010E942505A5019401FD
:1007A0000E947D05623DF4E07F0709F07AC0AE014A
:1007B0004F5F5F4F62ED74E080E090E00E94C900FF
:1007C000CE0101960E94A600F0926B0180917D01FE
:1007D0008111A3C03FB7F89480916701909168019F
:1007E000A0916901B0916A0126B5A89B05C02F3F71
:1007F00019F00196A11DB11D3FBFBA2FA92F982F47
:100800008827820F911DA11DB11D42E0880F991FFD
:10081000AA1FBB1F4A95D1F72091A20140919A01CE
:1008200050919B0160919C0170919D012C013D01B3
:10083000441A550A660A770A4091A0015091A10115
:10084000211104C040919E0150919F01052E000C82
:10085000660B770B4416550666067706D4F180932F
:100860009A0190939B01A0939C01B0939D0180916C
:10087000910190917C01911133C0222301F11092DA
:10088000A201809191018F5F8093910190919001DD
:10089000891710F010929101809191010E9422021B
:1008A00018C0072E000C880B990BAE014F5F5F4FED
:1008B0000E94C900CE0101960E94A60087CF0E9427
:1008C000D9018091A0019091A101892BD1F2F092E0
:1008D000A2010115110509F41ACF0E94000017CFDB
:1008E000222391F01092A201809191018F5F809359
:1008F000910190918F01891710F0109291018091D0
:1009000091010E94F701E5CF0E94BB018091A001F7
:100910009091A101892B41F3DACF80917C01E12CE8
:1009200081111AC080919001E81698F68E2D0E94D0
:10093000220280919E0190919F010E9450028E2D73
:100940000E94D9018091A0019091A101009711F01E
:100950000E945002E394E6CF80918F01E81608F0E0
:10096000B8CF8E2D0E94F70180919E0190919F013A
:100970000E9450028E2D0E94BB018091A001909197
:10098000A101009711F00E945002E394E5CFE8E73F
:10099000F1E080ED97E097A386A311A610A612A61A
:1009A000178A118E12A213A214A215A21482158204
:1009B00008958F929F92AF92BF92CF92DF92EF9263
:1009C000FF92CF93DF93EC01688179818A819B81CB
:1009D000611571058105910521F464E279ED8BE5DE
:1009E00097E02DE133EF41E050E00E947D054901A1
:1009F0005A019B01AC01A7EAB1E40E949C056B017E
:100A00007C01ACEEB4EFA50194010E94AA05C60ECC
:100A1000D71EE81EF91EF7FE06C081E0C81AD108ED
:100A2000E10880E8F80AC882D982EA82FB82C7011D
:100A3000B6019F77DF91CF91FF90EF90DF90CF903D
:100A4000BF90AF909F908F9008958F929F92AF929A
:100A5000BF92CF92DF92EF92FF926091000170916E
:100A600001018091020190910301611571058105D9
:100A7000910521F464E279ED8BE597E02DE133EF08
:100A800041E050E00E947D0549015A019B01AC0103
:100A9000A7EAB1E40E949C056B017C01ACEEB4EFC7
:100AA000A50194010E94AA05C60ED71EE81EF91ED4
:100AB000F7FE06C081E0C81AD108E10880E8F80A0C
:100AC000C0920001D0920101E0920201F092030174
:100AD000C701B6019F77FF90EF90DF90CF90BF9056
:100AE000AF909F908F9008956093000170930101E3
:100AF00080930201909303010895052E97FB1EF445
:100B000000940E94940557FD07D00E94AF0507FC92
:100B100003D04EF40C949405509540953095219552
:100B20003F4F4F4F5F4F0895909580957095619519
:100B30007F4F8F4F9F4F08950E94D105A59F900D25
:100B4000B49F900DA49F800D911D11240895B7FFAF
:100B50000C949C050E949C05821B930B0895A1E2B6
:100B60001A2EAA1BBB1BFD010DC0AA1FBB1FEE1F27
:100B7000FF1FA217B307E407F50720F0A21BB30B72
:100B8000E40BF50B661F771F881F991F1A9469F7EE
:100B900060957095809590959B01AC01BD01CF014A
:100BA0000895A29FB001B39FC001A39F700D811D46
:100BB0001124911DB29F700D811D1124911D089566
:100BC000EE0FFF1F0590F491E02D0994F894FFCFEC
:100BD0000100000002030405060708090A0B0C0DBA
:100BE000010000000A00000064000000E8030000AB
:100BF00010270000A086010040420F008096980058
:100C000000E1F50500CA9A3B3F065B4F666D7D0724
:100C10007F6F777C395E79713D76300E763800547F
:100C20003F7367506D783E3E00766E5B0040806398
:020C30000800BA
:107E0000112484B714BE81FFF0D085E080938100F7
:107E100082E08093C00088E18093C10086E0809377
:107E2000C20080E18093C4008EE0C9D0259A86E02C
:107E300020E33CEF91E0309385002093840096BBD3
:107E4000B09BFECF1D9AA8958150A9F7CC24DD24C4
:107E500088248394B5E0AB2EA1E19A2EF3E0BF2EE7
:107E6000A2D0813461F49FD0082FAFD0023811F036
:107E7000013811F484E001C083E08DD089C08234E0
:107E800011F484E103C0853419F485E0A6D080C0E4
:107E9000853579F488D0E82EFF2485D0082F10E0AE
:107EA000102F00270E291F29000F111F8ED06801E7
:107EB0006FC0863521F484E090D080E0DECF843638
:107EC00009F040C070D06FD0082F6DD080E0C81688
:107ED00080E7D80618F4F601B7BEE895C0E0D1E017
:107EE00062D089930C17E1F7F0E0CF16F0E7DF06D8
:107EF00018F0F601B7BEE89568D007B600FCFDCFD4
:107F0000A601A0E0B1E02C9130E011968C91119780
:107F100090E0982F8827822B932B1296FA010C0160
:107F200087BEE89511244E5F5F4FF1E0A038BF0790
:107F300051F7F601A7BEE89507B600FCFDCF97BE46
:107F4000E89526C08437B1F42ED02DD0F82E2BD052
:107F50003CD0F601EF2C8F010F5F1F4F84911BD097
:107F6000EA94F801C1F70894C11CD11CFA94CF0C13
:107F7000D11C0EC0853739F428D08EE10CD085E9AC
:107F80000AD08FE07ACF813511F488E018D01DD067
:107F900080E101D065CF982F8091C00085FFFCCF94
:107FA0009093C60008958091C00087FFFCCF809118
:107FB000C00084FD01C0A8958091C6000895E0E648
:107FC000F0E098E1908380830895EDDF803219F02E
:107FD00088E0F5DFFFCF84E1DECF1F93182FE3DFCA
:107FE0001150E9F7F2DF1F91089580E0E8DFEE27F6
:047FF000FF270994CA
:027FFE00040479
:00000001FF
